:1000000000800020C5B60000F1B60000F1B6000087
:10001000F1B60000F1B60000F1B60000F1B6000044
:10002000F1B60000F1B60000F1B60000F1B6000034
:10003000F1B60000F0B60000F1B600003507000090
:10004000F1B60000CD720000F1B600000D6B0000AB
:1000500039730000D9720000F1720000D172000003
:10006000F1B600006D0700000D42000055020000CF
:10007000F1B60000F1B60000F1B60000F1B60000E4
:10008000F1B60000B107000025420000F1B6000003
:10009000F1B60000F1B60000F1B60000F1B60000C4
:1000A000F1B60000F1B60000F1B600003D730000AB
:1000B000D5720000F1B600007D730000F1B60000BB
:1000C000115E0000F1B6000010B5054C237833B97D
:1000D000044B13B10448AFF300800123237010BD1B
:1000E000A003002000000000E0D2000008B5034B90
:1000F0001BB103490348AFF3008008BD00000000B6
:10010000A4030020E0D20000154B002B08BF134BC6
:100110009D46A3F5803A00218B460F461348144AAA
:10012000121A00F043FC0F4B002B00D098470E4BE7
:10013000002B00D098470020002104000D000D483E
:10014000002802D00C48AFF3008000F00BFC200028
:10015000290000F04FFB00F0F1FB00BF0000080099
:10016000008000200000000000000000A00300202C
:10017000500A0020000000000000000082B003468A
:100180008DF807309DF90730002B0CDB9DF8073008
:1001900003F01F0205499DF907305B09012000FAB1
:1001A00002F241F8232000BF02B0704700E100E0F6
:1001B00082B003468DF807309DF90730002B0DDB28
:1001C0009DF8073003F01F0206499DF907305B09CF
:1001D000012000FA02F2603341F8232000BF02B090
:1001E000704700BF00E100E082B001900091019BE8
:1001F000009A9A6400BF02B0704782B001900091EB
:10020000019BDA6C009BDB431A40019BDA6400BF60
:1002100002B0704782B001900091019BDA6C009BA4
:100220001A43019BDA6400BF02B0704708B504218D
:100230000248FFF7E2FF00BF08BD00BF0000014019
:1002400008B504210248FFF7E5FF00BF08BD00BF65
:100250000000014010B5144B1B6903F08003002B14
:1002600020D0124B1B68072B1ADC114B1C680E4860
:100270000BF006FA03461A460E4B1A550C4B1B6838
:1002800001330B4A1360094B1B680133074A1360A3
:10029000074B1B68082B05D1054B00221A6001E0B3
:1002A000FFF7C4FF00BF10BD00000140C4030020E1
:1002B000C0030020C803002030B589B001212A48BE
:1002C00009F030FA0121294809F02CFA012304220F
:1002D000002100200AF072FF0123022201210020E8
:1002E0000AF06CFF224B0793224B6C461D460FCD44
:1002F0000FC495E8070084E8070001211E4809F0B3
:1003000011FA00238DF800306B46194607980BF060
:10031000D5F8079B03225A67079B9B6F23F4F8537A
:1003200023F01F03079A936704211148FFF75CFF2E
:100330000B20FFF73DFF04210D48FFF76BFF0B205B
:10034000FFF71CFF052107980BF094F80B4B1B6877
:10035000986800230222002100F096FF084B01223A
:100360001A7000BF09B030BD4041050000250A00E9
:100370000000014030BB000000220400000000200B
:10038000D103002000B583B04FF0FF330193184B29
:100390001B7883F00103DBB2002B01D0FFF78CFF49
:1003A0000AF066F80090134B1B68002B18DD124B07
:1003B0001B68124AD35CDBB201930F4B1B680133FD
:1003C0000D4A13600C4B1B68082B02D10A4B00220C
:1003D0001A60084B1B68013B064A1360FFF730FFA9
:1003E00000980AF050F8019B184603B05DF804FB32
:1003F000D1030020C4030020BC030020C803002058
:1004000000B583B003468DF80730104B1B7883F09E
:100410000103DBB2002B01D0FFF74EFF0C4B1B7822
:10042000002B07D09DF807300A2B03D10D21094876
:100430000BF035F99DF80730194606480BF02FF9F7
:100440009DF80730184603B05DF804FBD103002087
:10045000D00300200000014082B001900023184624
:1004600002B0704782B00190FEE782B00190009127
:10047000009B4FF400525A600023184602B07047A8
:1004800082B001900123184602B0704784B00390F7
:10049000029101920023184604B0704700B587B05E
:1004A000039002910192002305930FE0FFF76AFF8A
:1004B0000490049BB3F1FF3F0ED0029B5A1C0292A2
:1004C000049AD2B21A70059B01330593019B5A1E00
:1004D0000192002BEAD100E000BF059B002B02DC5B
:1004E0004FF0FF3300E0059B184607B05DF804FBB2
:1004F00084B00190094B1B68002B02D1074B084ABE
:100500001A60064B1B680393044B1A68019B134443
:10051000024A1360039B184604B07047D4030020BE
:10052000500A002000B587B0039002910192002389
:10053000059309E0029B5A1C02921B781846FFF7AC
:100540005FFF059B01330593059A019B9A42F1DBFE
:10055000019B184607B05DF804FB000082B003461B
:100560008DF807309DF90730002B0CDB9DF8073024
:1005700003F01F0205499DF907305B09012000FACD
:1005800002F241F8232000BF02B0704700E100E012
:1005900082B0034600918DF807309DF90730002B9B
:1005A0000ADB009BDAB20C499DF907305201D2B246
:1005B0000B4483F800230BE0009BDAB207499DF857
:1005C000073003F00F03043B5201D2B20B441A76FA
:1005D00000BF02B0704700BF00E100E000ED00E0A6
:1005E00000B583B00190019B013BB3F1807F01D343
:1005F00001230FE0094A019B013B536007214FF0A3
:10060000FF30FFF7C5FF054B00229A60034B07221E
:100610001A600023184603B05DF804FB10E000E008
:10062000024BDB6C1B0EDBB218467047B081E00F4B
:1006300086B0039002910192039B03F10473DA00E8
:10064000029B13449B000593059B019A1A6000BF0F
:1006500006B0704782B00190034A019BC2F824346F
:1006600000BF02B0704700BF00A0004000B587B0D7
:100670002B4B01225A644FF0501304930023039331
:10068000FFF7CEFF03468DF80B306B4618460AF095
:1006900035FE9DF80B308E2B22D8224BD3F8B0308C
:1006A0000193204A019B43F00403C2F8B0300023B9
:1006B00005930EE01C48049A039B42EA0301059A45
:1006C00013465B0013441B0103441960059B01336F
:1006D0000593059B052BEDD9124A019BC2F8B0305A
:1006E0009DF80B308F2B07D80E4BDB6A23F07F036E
:1006F0000C4A43F02003D3629DF80130012B05D151
:100700000A4B1B68094A43F00403136000220D21C1
:100710000748FFF78DFF00BF07B05DF804FB00BF7F
:1007200000000E4000400E4000A0004064310E402A
:1007300054300E40034B1B680133024A136000BF64
:10074000704700BF2809002084B00190064B1B6849
:10075000039300BF044B1A68039BD31A019A9A4271
:10076000F8D800BF04B070472809002008B545F24A
:100770005550FFF76FFF0C4B1B68013B0A4A136093
:10078000094B1B680A2B02DC074B0B221A60064B35
:100790001B681946054800F05FFD034B1B681846AF
:1007A00003F086FB00BF08BD240900204CBB0000FD
:1007B00008B54AF6AA20FFF74DFF0C4B1B68013322
:1007C0000A4A1360094B1B681A2B02DD074B1A22D9
:1007D0001A60064B1B681946054800F03DFD034BA7
:1007E0001B68184603F064FB00BF08BD2409002005
:1007F0004CBB000030B58DB0FFF738FF424B08AC62
:100800000FCB84E80F0008AB18460AF061F93F4BA4
:1008100003AC1D460FCD0FC42B68238003AB1846D5
:1008200009F084FB0421112009F048FA012138481D
:1008300008F078FF0121374808F074FF012136489D
:1008400008F070FF0121354808F06CFF01213448A1
:1008500008F068FF334808F0CDFF0246324BA3FB97
:1008600002239B091846FFF7BBFE0346002B00D06E
:10087000FEE703F01DFD03F085F903F0DFFC012323
:1008800003220C2101200AF099FC012303220D21EF
:1008900001200AF093FC0920FFF760FE1120FFF70A
:1008A0005DFE012301930123009300230C220C2100
:1008B00001200AF0E7FB01230193012300930023A9
:1008C0000D220D2101200AF0DDFB03F0FDFA174B8C
:1008D0000F221A60154B1B68184603F0E9FA144BF7
:1008E00001221A601221134803F030FC104B002241
:1008F0001A60114800F0B0FC4FF47A70FFF724FF43
:1009000003F049F9F8E700BF68BB000078BB0000BE
:1009100030053E00A009140000150A0000250A0059
:100920000012040070000200D34D62102409002060
:10093000B00900208CBB000060BB000008B5074B6D
:10094000044613B10021AFF30080054B1868836A99
:1009500003B198472046FFF785FD00BF0000000067
:10096000A0BB000070B50D4E0D4CA41BA4100025BB
:10097000A54209D10B4E0C4C0BF0CEF8A41BA410D1
:100980000025A54205D170BD56F8253098470135A0
:10099000EEE756F8253098470135F2E7940300203A
:1009A000940300209403002098030020024403468F
:1009B000934200D1704703F8011BF9E72DE9F04796
:1009C00088B0002B149F109DDDE9121A1E4627F0F7
:1009D0002007BBBF03F100431E4600232D23462FF3
:1009E00014460B7004D0452F00D10135022300E0DE
:1009F000032307AA049206AACDE902A2CDE9003595
:100A00002246334600F084FD472F804602D1119BD9
:100A1000DB0726D5462F08EB050911D198F80030E1
:100A2000302B0AD1002200232046314603F00AF879
:100A300018B9C5F10105CAF80050DAF80030994438
:100A4000002200232046314602F0FCFF38B9302254
:100A5000079B4B4505D2591C07911A70F8E7CDF852
:100A60001C90079B159AA3EB08034046136008B03F
:100A7000BDE8F087F7B500290446BABF49422D23E7
:100A80002B23092904F8022B437020DD0DF1070305
:100A90001F460A2691FBF6F506FB15113031092D8C
:100AA00003F8011C03F1FF32294609DC3031023B17
:100AB00002F8011CBB42224604D3101A03B0F0BD59
:100AC0001346E7E713F8012B04F8012BF2E7302374
:100AD00019448370021DC170EFE700002DE9F04F4B
:100AE00091B00C461A9F93461E46054601F044FC01
:100AF00003680993184600F075FC00230E933B68C9
:100B00000A90073323F0070303F1080294F81880D2
:100B1000D4F800A03A60D3E90023C4E91223D4E951
:100B2000127929F000430B934FF0FF32A64B0B993B
:100B3000384602F0B9FF68BB4FF0FF32A24B0B9969
:100B4000384602F093FF28BB00220023384649466E
:100B500002F082FF10B12D2384F843309B4F9C4B51
:100B6000B8F1470F98BF1F46032323612AF00403FF
:100B700023604FF0000900965B460FAA21462846E5
:100B800000F0E2F9013040F090804FF0FF3011B0FA
:100B9000BDE8F08F3A464B463846494602F084FF9E
:100BA00010B18C4F8C4BDBE76368591C4AF48062B0
:100BB0000EA90DA840D1062363600DF13303CDE9E2
:100BC00001234FF0000C63682260CDE90308009315
:100BD0003A464B46CDE9051C2846FFF7EFFE08F0E4
:100BE000DF03472B074609D10D9BD81C02DB626847
:100BF000934247DDA8F102085FFA88F8B8F1650F63
:100C00000D9924D80139424604F150000D91FFF7A7
:100C100031FF0E9A1318012A8146236102DC2268F3
:100C2000D10701D5013323619DF83330002BA2D0C9
:100C30002D2384F843309EE7B8F1670F00F06E81F2
:100C4000B8F1470FB9D1002BB7D10123B4E7B8F100
:100C5000660F19D1002963680CDD216113B9226880
:100C6000D20702D501330B4423610D9BA3654FF0DE
:100C70000009D9E713B92268D00701D50233F3E799
:100C80000123F1E74FF06708DDE90D32934205DB00
:100C900022682361D107E8D50133E5E7002BD4BFF3
:100CA000C3F1020301231344DEE723685A0507D486
:100CB00023693A4659462846B047013029D164E7AE
:100CC000B8F1650F40F2D78000220023D4E9120169
:100CD00002F0B8FE88B30123404A59462846B0477F
:100CE00001303FF452AFDDE90D239A4202DB236865
:100CF000D8070ED5DDE9092359462846B04701300B
:100D00003FF443AF002704F11A080E9B013BBB429E
:100D100009DC23689F0700F1FD80E0680F9B984283
:100D2000B8BF184633E70123424659462846B04724
:100D300001303FF42AAF0137E7E70D9B002B2BDC96
:100D40000123264A59462846B04701303FF41DAFDB
:100D50000D9B23B90E9B13B92368D907D9D5DDE9BB
:100D6000092359462846B04701303FF40EAF4FF0F3
:100D7000000804F11A090D9B5B42434501DC0E9B00
:100D800097E701234A4659462846B04701303FF4C9
:100D9000FCAE08F10108EEE70E9AA36D9A42A8BFD7
:100DA0001A46002A904607DD134659463A46284619
:100DB000B04701303FF4E9AE04F11A034FF0000AE6
:100DC00028EAE8780B9315E0FFFFEF7FA8BB00004F
:100DD000A4BB0000B0BB0000ACBB0000B4BB000073
:100DE00001230B9A59462846B04701303FF4CDAE57
:100DF0000AF1010AD4F85890A9EB08035345EFDC37
:100E0000DDE90D239A424F4414DB2368DA0711D43D
:100E10000E9B0D99A3EB0902A3EB01099145A8BF15
:100E20009146B9F1000F0DDC002729EAE97904F1B8
:100E30001A0818E0DDE9092359462846B047013071
:100E4000E6D1A2E64B463A4659462846B04701301D
:100E5000EAD19AE60123424659462846B047013076
:100E60003FF493AE0137DDE90D239B1AA3EB090391
:100E7000BB42EFDC4DE70E9A012A01DCDB0738D5D7
:100E800001233A4659462846B04701303FF47DAE2B
:100E9000DDE9092359462846B047013007F101072B
:100EA0003FF473AE0E9B002203F1FF38D4E9120128
:100EB000002302F0C7FDC0B943463A4659462846CA
:100EC000B04701300DD160E601234246594628461D
:100ED000B04701303FF459AE01370E9B013BBB4296
:100EE000F2DC4B4604F15002E4E6002704F11A0854
:100EF000F3E70123E1E70123424659462846B0477C
:100F000001303FF442AE0137E3680F9A9B1ABB42AF
:100F1000F1DC02E7002704F11908F5E7002B3FF4A4
:100F200094AE4FF0000CCDE9051C0DF133012260A9
:100F3000CDE90308CDE9012100933A464B46284606
:100F4000FFF73CFD07464FE62DE9F04791461F4667
:100F50008A680B69DDF820809342B8BF1346C9F850
:100F6000003091F8432006460C4612B10133C9F80F
:100F700000302368990642BFD9F800300233C9F81F
:100F80000030256815F0060507D104F1190AE36859
:100F9000D9F800209B1AAB4228DC94F84330226831
:100FA000003318BF012392062DD404F143023946C1
:100FB0003046C047013020D02368E568D9F80020CA
:100FC00003F00603042B08BFAD1AA36822690CBF07
:100FD00025EAE57500259342C4BF9B1AED184FF032
:100FE00000091A344D451AD1002008E00123524669
:100FF00039463046C047013003D14FF0FF30BDE8DD
:10100000F0870135C3E7E1185A1C302081F843000E
:10101000224494F8451082F843100233C5E70123B7
:10102000224639463046C0470130E6D009F1010971
:10103000D8E700002DE9F04301F1430C0C46097E8E
:1010400085B06E291746064698460C9A00F0B38084
:1010500022D8632936D00AD8002900F0B98058294F
:1010600000F0838004F1420584F8421032E06429E4
:1010700001D06929F6D120681368050603F104013F
:101080002AD51B681160002B03DA2D225B4284F8FD
:1010900043206F480A2239E0732900F09D8008D868
:1010A0006F2920D07029DDD1236843F0200323600D
:1010B00003E0752917D07829D4D1782384F84530F6
:1010C000644855E01368191D1B68116004F142055E
:1010D00084F8423001238CE01B68116010F0400F4F
:1010E00018BF1BB2CFE713682568181D10602806CB
:1010F00001D51B6802E06806FBD51B8854486F29A0
:1011000014BF0A220822002184F843106568A560F4
:10111000002DC0F29580216821F004012160002B90
:101120003DD1002D40F08E806546082A0BD1236802
:10113000DB0708D5236962689A42DEBF302305F8D1
:10114000013C05F1FF35ACEB05032361CDF80080D0
:101150003B4603AA21463046FFF7F6FE01304DD14B
:101160004FF0FF3005B0BDE8F083394884F84510F2
:10117000136821681D1D1B6815600A060BD5CA0778
:1011800044BF41F0200121601BB9226822F02002F7
:1011900022601022B7E74D0648BF9BB2EFE76546D5
:1011A000B3FBF2F102FB1133C35C05F8013D0B46C2
:1011B0000029F5D1B9E7136825686169181D106029
:1011C00028061B6801D5196002E06A06FBD5198064
:1011D000002323616546B9E71368191D11601D6876
:1011E00062680021284601F043F908B1401B6060A5
:1011F00063682361002384F84330A7E723692A4604
:1012000039463046C0470130AAD023689B0713D423
:10121000E068039B9842B8BF1846A3E701234A46FB
:1012200039463046C04701309AD00135E368039A09
:101230009B1AAB42F2DCEBE7002504F11909F5E754
:10124000002BACD1037884F8423004F142056CE7FE
:10125000B6BB0000C7BB00000FB40A4B13B51C6837
:1012600024B1A36913B9204600F0FCFF05AB049A32
:10127000A1680193204601F00FFD02B0BDE81040C7
:1012800004B07047000000202DE9F7431D46514B84
:101290001E6804460F46904626B1B36913B930461E
:1012A00000F0E0FF4C4B9C4252D17468B8F1020F41
:1012B00006D0B8F1010F00F28980002DC0F28680BF
:1012C0002146304600F064FF616B41B104F14403F4
:1012D000994202D0304601F00FFC002363630023E3
:1012E000A3616360A3891B0603D52169304601F021
:1012F00003FCA38923F44A6323F00303B8F1020F2C
:10130000A3815DD001AB6A462146304601F042F828
:10131000A3891843A0812DBB009D284601F09EF8AB
:10132000074600284ED1DDF80090A9453CD14FF08A
:10133000FF30A38943F00203A3810023A36004F1DB
:101340004703236023610123636103B0BDE8F08399
:10135000224B9C4201D1B468A8E7214B9C4208BFB4
:10136000F468A3E7002FD8D0B36913B9304600F072
:1013700079FFB8F1010F08BFA389276004BF43F0CC
:101380000103A381A38913F00800C4E904751BD0ED
:1013900013F0010018BF6D424FF000031DBFA360A2
:1013A000A5611846A560D0E7484601F057F8074602
:1013B0000028BCD0A38943F08003A3814D46D3E726
:1013C0000020B6E7A946F5E7A060BEE74FF0FF3082
:1013D000BBE700BF0000002008BC000028BC0000E4
:1013E000E8BB0000034613F8012B002AFBD1181AB2
:1013F000013870472DE9F74F03690C69A342804615
:10140000C0F28280013C01F114074FEA840C00F124
:10141000140657F8245056F8240006EB0C03013547
:1014200007EB0C090193B0FBF5F595B34FF0000AFB
:101430003846B646D34650F8042B93B205FB03A3B7
:101440004FEA134A9BB2ABEB0303120CDEF800B079
:1014500005FB02A213FA8BF34FEA124A1FFA82FB32
:10146000DEF80020CBEB124202EB23429BB243EAB0
:10147000024381454FEA224B4EF8043BDBD256F83B
:101480000C3033B9019B043B9E421A4630D3C8F856
:101490001040404601F05CFA002825DB013530465B
:1014A0004FF0000C57F8042BD0F800E093B2ACEBEF
:1014B0000303120C13FA8EF3C2EB1E4202EB23421B
:1014C0009BB243EA0243B9454FEA224C40F8043B41
:1014D000E8D256F8242006EB84032AB9043B9E4246
:1014E0001A460BD3C8F81040284603B0BDE8F08F69
:1014F0001268043B002ACAD1013CC5E71268043BCC
:10150000002AEFD1013CEAE70020EEE700000000EE
:101510002DE9F04F456A95B016461F460446DDF8A2
:101520008480CDE902673DB9102000F097FF60622A
:10153000C0E901550560C560636A196851B15A6810
:101540004A60012393408B60204601F020F8636AD3
:1015500000221A603B1EBBBF23F00043039300230D
:101560000122ACBFC8F80030C8F80020AE4BDDF84F
:101570000C8033EA08031BD1209A42F20F731360E8
:10158000029B23B9C8F31300002800F04B85229B6F
:1015900053B9A64B21E0A64B06930833229A136059
:1015A000069815B0BDE8F08FA04B06930333F5E71E
:1015B000DDE90267002200233046394602F042FA94
:1015C000824660B1209A01231360229B002B00F019
:1015D0002685984B229A1360013B0693E0E712ABF5
:1015E000019313AB009332463B46204601F027FAA5
:1015F000C8F30A558346002D7CD0C7F3130343F08C
:101600007F59B04649F44019A5F2FF35CDF840A006
:101610000022894B4046494601F0F4FD7CA3D3E902
:10162000002301F0A7FF7CA3D3E9002301F0ECFD28
:10163000064628460F4601F033FF79A3D3E900237D
:1016400001F098FF02460B463046394601F0DCFDBA
:1016500006460F4602F03EFA00228246002330463C
:10166000394602F0F9F948B1504601F019FF324607
:101670003B4602F0E7F908B90AF1FF3ABAF1160F52
:1016800059D86E4901EBCA01DDE90223D1E9000115
:1016900002F000FA002850D00AF1FF3A00230D931F
:1016A000129B5D1B6B1E079343BF0023C5F101090D
:1016B00007934FF00009BAF1000F40DB079BCDF80C
:1016C00030A053440793002308931E9B092B00F27C
:1016D0008E80052BC4BF043B1E931E9BA3F1020307
:1016E000CCBF00250125032B00F28D80DFE803F03D
:1016F0007B7D2F6FDDE912531D4405F23240202817
:1017000013DDC0F14000029B08FA00F805F2124018
:1017100023FA00F048EA000001F0B2FE01238046FF
:10172000A1F1F879013D109372E7029BC0F120000E
:1017300003FA00F0F0E70123B1E70D90B0E7CAF13A
:10174000000308930023A9EB0A090C93BDE70123CA
:1017500009931F9B002B75DD04939846666A00224F
:101760007260042202F11400984271686FD9204619
:1017700000F0D9FE636A30601B680693B8F10E0F63
:1017800000F2EE80002D00F0EB80DDE90223BAF1DB
:10179000000FCDE90E2378DD284A0AF00F0302EB93
:1017A000C303D3E900234FEA2A16F006CDE90A2342
:1017B00069D5234BDDE90E01D3E9082302F004F8D3
:1017C000CDE9020106F00F0603251D4F50E001236D
:1017D00009931F9B534403F1010804934346012BD3
:1017E000B8BF0123BAE70023B2E70023F0E70125E1
:1017F00000231E9309954FF0FF330493984600226F
:1018000012231F92AAE701230993F4E7AFF30080A4
:1018100061436F63A787D23FB3C8608B288AC63FF6
:10182000FB799F501344D33F0000F07FE1BB0000E1
:10183000D8BB0000B5BB00000000F83F70BC000042
:1018400048BC00000123049398461A46D9E70131A9
:101850007160520086E7F10708D5DDE90A01D7E992
:10186000002301F087FECDE90A0101357610083723
:10187000002EF0D1DDE90A23DDE9020101F0A4FF29
:10188000CDE902011BE002259FE700F0A480CAF128
:101890000006A24BA24F06F00F0203EBC203D3E9EE
:1018A0000023DDE90E0101F065FECDE902013611EC
:1018B00000230225002E40F08380002BE0D10D9BF9
:1018C000002B00F08A80DDE90223CDE90A23DDE95F
:1018D0000A010022934B02F0BFF800287DD0B8F136
:1018E000000F7AD0049B002B36DD00228E4BDDE901
:1018F0000A0101F03FFECDE90201049E0AF1FF3723
:101900000135284601F0CCFDDDE9022301F032FE6D
:101910000022864B01F078FCA1F15075CDE90A0157
:101920000B95002E5CD10022814BDDE9020101F014
:1019300069FC0A9A2B46CDE9020102F0ABF80028B7
:1019400040F084820A9A05F10043DDE9020102F0C9
:1019500083F8002840F07882DDE90E23CDE90223E8
:10196000139B002BC0F24E81BAF10E0F00F34A8197
:101970006A4B03EBCA03D3E90023CDE904231F9B81
:10198000002B80F2D980B8F1000F00F3D58040F031
:101990005A820022664BDDE9040101F0EBFDDDE92E
:1019A000022302F06DF846464746002840F0308298
:1019B000069B069A5D1C312313700AF1010A2BE283
:1019C000F20705D5D7E9002301F0D4FD0135012345
:1019D000761008376EE7022571E75746464690E7CE
:1019E0004E4B03EBC60353E90201099B002B48D081
:1019F00002460B4600204F4901F0E6FEDDE90A23CE
:101A000001F000FCCDE90A01069DDDE9020102F0CA
:101A100061F8119001F044FD02460B46DDE9020138
:101A200001F0F0FB119B303305F8013BDDE90A239F
:101A3000CDE9020102F010F8002864D1DDE90223AB
:101A40000020384901F0DEFBDDE90A2302F004F84A
:101A5000002840F0B780069BEB1A9E427FF77CAFD0
:101A60000022314BDDE90A0101F084FD0022CDE9BD
:101A70000A012D4BDDE9020101F07CFDCDE90201F7
:101A8000C3E7DDE90A2301F075FD069BCDE90A01F4
:101A90009D191E46DDE9020102F01CF8119001F0CB
:101AA000FFFC02460B46DDE9020101F0ABFB119B96
:101AB000303306F8013BAE42CDE902014FF000029F
:101AC00025D11C4BDDE90A0101F09EFB02460B46C5
:101AD000DDE9020101F0DEFF002873D1DDE90A2310
:101AE0000020144901F08EFB02460B46DDE902019D
:101AF00001F0B2FF00283FF42FAF15F8013C302B66
:101B000005F1FF3201D0BA464BE01546F5E7064B2A
:101B100001F030FDCDE90201BCE700BF70BC000060
:101B200048BC00000000F03F0000244000001C40C2
:101B3000000014400000E03FDDE90267069DDDE99A
:101B400004233046394601F03FFE01F0C3FF8146D1
:101B500001F0A6FCDDE9042301F00CFD02460B4672
:101B60003046394609F1300601F04CFB05F8016BAF
:101B7000069EAE1BB04502460B4636D101F044FB33
:101B8000DDE9042306460F4601F084FFC8B9DDE90C
:101B900004233046394601F055FF10B119F0010F0A
:101BA0000FD15946204600F0F2FC0023209A2B70FA
:101BB0000AF101031360229B002B3FF4F1AC1D607E
:101BC000EEE4574615F8012C392A05F1FF3306D10A
:101BD000069A9A4207D130231370013713461A78B8
:101BE00001321A708FE71D46ECE70022994B01F095
:101BF000C1FC0022002306460F4601F023FF002807
:101C00009DD0CEE7099A002A00F088801E9A012A0A
:101C10006DDC109A002A66D003F23343089E4D46CD
:101C2000079A01211A4420469944079200F04FFD7B
:101C30000746002D0BDD079B002B08DDAB42079A02
:101C4000A8BF2B46A9EB0309ED1AD31A0793089BEB
:101C5000EBB1099B002B65D08EB139463246204648
:101C600000F0D4FD5A4601460746204600F038FDF4
:101C700059460A90204600F08AFC0A9B9B46089B26
:101C80009A1B04D05946204600F0C0FD834601212E
:101C9000204600F01CFD0C9B0646002B00F0C9817D
:101CA0001A460146204600F0B1FD1E9B012B064658
:101CB0003EDC029B002B37D1039BC3F31303002BA5
:101CC00034D1039B23F000431B0D1B052BB1079B55
:101CD0000133079309F10109012308930C9B002BA1
:101CE00028D101202EE0129BC3F1360396E7089B12
:101CF00008F1FF36B342BFBF089B0896F21A0C9B4F
:101D0000B7BF9B189E1B0C930026B8F1000FB9BFFC
:101D1000A9EB080500234D46434681E7089E099F2D
:101D20004D4686E7089AADE70023D6E7029BD4E745
:101D300000230893336906EB8303186900F079FCEC
:101D4000C0F12000079B184410F01F0047D0C0F1DD
:101D50002003042B3BDD079BC0F11C00814405449C
:101D600003440793B9F1000F05DD59464A46204662
:101D700000F09AFD8346079B002B05DD31461A468D
:101D8000204600F091FD06460D9B53B33146584660
:101D900000F0DEFD002824DA002359460A222046FE
:101DA00000F00CFC099B0AF1FF3A8346002B00F07F
:101DB0004781002339460A22204600F0FFFB049B9E
:101DC000002B07464EDC1E9B022B4BDD11E0C9D0D9
:101DD000079A1C331A4499441D441346C1E703462D
:101DE000F6E7B8F1000F37DC1E9B022B34DDCDF88F
:101DF0001080049B63B931460522204600F0DEFBCB
:101E000001460646584600F0A3FD00283FF7D0AD36
:101E10001F9B069D6FEA030A4FF0000931462046DA
:101E200000F0B5FB002F3FF4BCAEB9F1000F05D0B8
:101E3000B94503D04946204600F0A9FB3946204663
:101E400000F0A5FBADE600263746E1E7BA46374687
:101E5000AEE500BF00002440099BCDF81080002BA8
:101E600000F0F580002D05DD39462A46204600F0B9
:101E70001BFD0746089B002B4CD07968204600F0DC
:101E800052FB3A6902320546920007F10C010C3010
:101E900000F03EFB01222946204600F005FD069B8E
:101EA0000793029B03F00103B946089307463146A6
:101EB0005846FFF79FFA4946054600F13008584654
:101EC00000F046FD3A4602903146204600F05AFDA9
:101ED000C368024603BB01460990584600F038FD2E
:101EE000099A034611462046099300F050FB099BCE
:101EF000A3B91E9A92B9089A82B9B8F1390F29D0BC
:101F0000029B002B01DD05F13108079B5D1C83F866
:101F1000008083E73846C2E70123E3E7029A002AFC
:101F200004DB24D11E9A12BB089A02BB002BECDD05
:101F300059460122204600F0B7FC3146834600F0A6
:101F400007FD002803DCE0D118F0010FDDD0B8F167
:101F5000390FD8D1079B079A5D1C3923137015F8E8
:101F6000013C392B05F1FF324ED0013353E0079A83
:101F7000002B02F1010506DDB8F1390FEAD008F1B6
:101F80000108079BC3E7069B049A05F8018CEB1A2E
:101F9000934221D0594600230A22204600F00EFB2E
:101FA000B94583464FF000034FF00A0249462046E8
:101FB00005D100F003FB81460746079577E700F05F
:101FC000FDFA3946814600230A22204600F0F6FA3F
:101FD0000746F2E74FF0000959460122204600F07B
:101FE00063FC3146834600F0B3FC0028B7DC02D125
:101FF00018F0010FB3D115F8013C302B05F1FF3279
:102000007FF40CAF1546F6E7069B934205D1069A7E
:102010000AF1010A3123137000E715469FE7174BB9
:10202000FFF7DBBA229B002B7FF4B5AA144BFFF716
:10203000D4BA1E9B012B7FF73CAE0C9B089350E655
:10204000049B002B03DC1E9B022B3FF7D2AE069DA8
:1020500031465846FFF7CEF900F1300805F8018BFC
:10206000069B049AEB1A9A42B4DD594600230A22D1
:10207000204600F0A3FA8346EAE700BFB4BB0000A5
:10208000D8BB00008A892DE9F041054610070C46AF
:1020900058D44B68002B05DC0B6C002B02DC0020B5
:1020A000BDE8F081E66A002EF9D0002312F48052D8
:1020B0002F68216A2B6032D0606DA3895A0705D53D
:1020C0006368C01A636B0BB1236CC01A002302460D
:1020D000E66A216A2846B047431CA38906D12968CD
:1020E0001D2948D8294ACA40D60744D50022626033
:1020F000D9042269226004D5421C01D12B6803B99E
:102100006065616B2F600029C9D004F144039942D6
:1021100002D0284600F0F0FC00206063C0E70123F5
:102120002846B047411CC8D12B68002BC5D01D2BB9
:1021300001D0162B01D12F60B1E7A38943F04003F2
:10214000A381ADE70F69002FA9D093070E6808BFE0
:102150004B690F6018BF0023A6EB07088B60B8F12E
:10216000000F9CDD43463A46216AA66A2846B047DE
:10217000002806DCA38943F04003A3814FF0FF3021
:102180008EE70744A8EB0008E9E700BF0100402004
:1021900038B50B6905460C46DBB118B183690BB93C
:1021A00000F060F80C4B9C4209D16C68B4F90C301B
:1021B0007BB121462846BDE83840FFF763BF074B97
:1021C0009C4201D1AC68F1E7054B9C4208BFEC682A
:1021D000ECE7002038BD00BF08BC000028BC0000B0
:1021E000E8BB0000002310B50446C0E9003383605B
:1021F00081814366C281C0E90433836119460822A4
:102200005C30FEF7D3FB054B6362054BA362054BC5
:10221000E362054B2462236310BD00BFE12E000082
:10222000032F00003B2F00005F2F0000014900F04A
:1022300085B800BF9121000070B54A1E682555433E
:102240000E4605F1740100F0A5FC044640B10021E2
:10225000C0E900160C30A06005F16802FEF7A6FB8D
:10226000204670BD836910B5044633BBC0E9123304
:102270000365124B124A1B688262984204BF012315
:10228000836100F01FF86060204600F01BF8A0603A
:10229000204600F017F80022E06004216068FFF794
:1022A000A1FF01220921A068FFF79CFF0222122151
:1022B000E068FFF797FF0123A36110BDA0BB0000FA
:1022C0002D220000F8B51B4B1E68B369074613B9F1
:1022D0003046FFF7C7FF4836D6E90134013B03D546
:1022E000336833B13668F7E7B4F90C506DB1683430
:1022F000F4E704213846FFF79FFF30600028F1D152
:102300000C233B6004462046F8BD0B4B6566C4E9D0
:102310000055A560C4E90335C4E9055508222946DE
:1023200004F15C00FEF742FBC4E90D55C4E9125507
:10233000E9E700BFA0BB00000100FFFF2DE9F84363
:102340008046894600F14804002614B93046BDE8AD
:10235000F883D4E90175013F01D52468F5E7AB891D
:10236000012B07D9B5F90E30013303D02946404679
:10237000C84706436835EEE7044B1B68186A044BF0
:10238000002808BF1846F030704700BF000000204A
:102390006400002070B50E46B1F90E10002996B009
:1023A00014461D4607DA00232B60B3891A0610D4A1
:1023B0004FF480630EE06A4600F0B8FE0028F2DBBE
:1023C000019A02F47042A2F500535A425A412A601F
:1023D000EEE740230020236016B070BD8B8973B5F3
:1023E0009D0706460C4607D504F147032360236189
:1023F0000123636102B070BD01AB6A46FFF7CAFFFB
:1024000000990546304600F0C5FB48B9B4F90C30D8
:102410009A05EFD423F0030343F00203A381E3E71B
:102420000D4BB362A389206043F08003A381009B1E
:102430006361019B20615BB1B4F90E10304600F07E
:1024400087FE28B1A38923F0030343F00103A3818E
:10245000A3891D43A581CDE72D220000024B014633
:10246000186800F097BB00BF0000002000000000CB
:1024700001F0FF01102A2BDB10F0070F08D010F835
:10248000013B013A8B422DD010F0070F42B3F6D139
:10249000F0B441EA012141EA014122F007047FF052
:1024A00000070023F0E80256083C85EA010586EAA9
:1024B000010685FA47F5A3FA87F586FA47F6A5FAE5
:1024C00087F68EB9EED1F0BC01F0FF0102F00702F1
:1024D00032B110F8013B013A83EA010313B1F8D19C
:1024E0000020704701387047002D06BF354603387D
:1024F000073815F0010F07D1013015F4807F02BFB6
:10250000013015F4C03F0130F0BC0138704700BF06
:1025100010B5431E0A44914200D110BD11F8014B81
:1025200003F8014FF7E770B5456A04460E463DB91A
:102530001020FFF793FF6062C0E901550560C56098
:10254000656AEB6883B1636ADB6853F82600B8B943
:10255000012101FA06F56A1D9200204600F0BEFA3C
:1025600060B1C0E901650EE021220421204600F09F
:10257000B5FA636AE860DB68002BE4D1002070BD27
:10258000026843F826200023C0E90333F7E770B55B
:10259000446A06460D463CB91020FFF75FFF7062A3
:1025A000C0E901440460C4603DB1736A6A68DB68D5
:1025B00053F82210296043F8225070BD2DE9F041F4
:1025C0000D691F4606460C4601F1140C0023DCF889
:1025D000000081B202FB01710F0C000C02FB0070C5
:1025E00089B2013301EB00419D424FEA10474CF89C
:1025F000041BECDCD7B1A368AB4212DC6168304647
:102600000131FFF790FF2269023204F10C0180468C
:1026100092000C30FFF77CFF21463046FFF7B7FFF2
:10262000444604EB850301355F6125612046BDE822
:10263000F081020C12040346B2B90304102013F017
:102640007F4F04BF1B02083013F0704F04BF1B0103
:10265000043013F0404F04BF9B000230002B06DB18
:102660005B0003D5013070470020E8E72020704769
:10267000036813F0070201460BD0DA0723D498074A
:1026800049BF5B089B0801200B605CBF0B60022008
:10269000704798B2A8B91B0C102013F0FF0F04BFAD
:1026A0001B0A08301A0704BF1B0904309A0704BF2D
:1026B0009B080230DA0702D45B0806D001300B60B9
:1026C00070471046E9E7002070472020704710B59A
:1026D0000C460121FFF727FF01224461026110BD72
:1026E0002DE9F74F14460A6923699A42B8BF0B4691
:1026F0008846BCBFA0461C46D8F81070D4F810908D
:10270000D8F80830D8F8041007EB0906B342B8BF70
:102710000131FFF708FF00F1140505EB860E2B468B
:102720000022734516D304F1140208F1140102EBE0
:10273000890301EB87070093009B019293420CD819
:10274000002E03DD5EF8043D002B5DD0066103B072
:10275000BDE8F08F43F8042BE3E7B2F800B0BBF11B
:10276000000F23D08946AC464FF0000859F8044BBF
:10277000DCF800A0A3B21FFA8AFA0BFB03A34FEA0E
:10278000144ADCF8004043444FEA14480BFB0A8427
:1027900004EB1344E2469BB243EA04434F454FEA3D
:1027A00014484AF8043B2BD8CCF80480019BB3F8BA
:1027B00002A00432BAF1000F20D02B688946A84647
:1027C0004FF0000BB9F800C0B8F802400AFB0C4407
:1027D0005C44C4469BB243EA04434CF8043B59F8BA
:1027E000043BB8F804B01B0C0AFB03B303EB14431F
:1027F0004F454FEA134B05D8C8F8043004359BE722
:10280000D446B3E7E046DDE7013E99E72DE9F8431A
:10281000154612F0030206460F4607D0013A214C36
:10282000002354F82220FFF7C9FE0746AD1035D02B
:10283000746A3CB91020FFF711FE7062C0E90144D0
:102840000460C460D6F82480D8F808404CB940F23F
:1028500071213046FFF73BFF0023C8F8080004460B
:1028600003604FF00008EB070AD539462246304690
:10287000FFF736FF394681463046FFF788FE4F4660
:102880006D100BD0206838B9224621463046FFF73C
:1028900027FF2060C0F800800446E4E73846BDE822
:1028A000F88300BF38BD00002DE9F0470C464FEA21
:1028B000621A236949680AEB0309A36807461646AA
:1028C00009F10105AB4232DB3846FFF72CFE00234D
:1028D000804600F114011A4653452BDB20692AEA91
:1028E000EA7A04F1140316F01F0201EB8A0103EBEC
:1028F000800C25D0C2F1200E00201E688A4696402A
:1029000030434AF8040B53F8040B9C4520FA0EF0B0
:1029100014D8486008B109F10205013D3846C8F8ED
:1029200010502146FFF733FE4046BDE8F0870131E5
:102930005B00C7E741F823200133CDE75146DCE7D0
:10294000043953F8042B41F8042F9C45F9D8E4E7E7
:1029500003690A699B1A30B50CD192001430143106
:102960008418114454F8045D51F8042D954203D0A5
:1029700005D30123184630BDA042F3D3FAE74FF048
:10298000FF33F7E72DE9F0470D4607461146284685
:102990001446FFF7DDFF061E08D131463846FFF723
:1029A000C2FD0123C0E90436BDE8F087A4BF234679
:1029B0002C4638466168A6BF1D4600260126FFF753
:1029C000B2FD2B69C660266905F1140904F11402F1
:1029D00002EB860709EB830800F114054FF0000EA7
:1029E00052F804AB59F8044B1EFA8AF1A3B2C91A83
:1029F000230CC3EB1A4303EB214389B24FEA234E66
:102A0000C84541EA0343944645F8043BE8D8BC4531
:102A100004D355F8043D83B10661C5E75CF8041B97
:102A20001EFA81F31A1402EB11429BB243EA0243ED
:102A30004FEA224E45F8043BE9E7013EE9E72DE97C
:102A4000F34101211C469046DDE90865FFF76BFD67
:102A5000C4F31302C4F30A54074634BB0192B8F11D
:102A6000000227D002A840F8082DFFF701FE0099C8
:102A7000F0B1019AC0F1200302FA03F30B43C24004
:102A80007B610192019BBB61002B14BF02210121DC
:102A90003961C4B1A4F2334404443460C0F1350058
:102AA0002860384602B0BDE8F08142F48012D5E7D4
:102AB0007961E7E701A8FFF7DBFD019B7B6101215D
:102AC00039612030E5E707EB8103A0F23240306046
:102AD0001869FFF7AEFDC0EB4110E1E738B502FB26
:102AE00001F4214600F056F8054618B122460021AF
:102AF000FDF75CFF284638BD38B50546002945D0AE
:102B000051F8043C0C1F002BB8BFE41800F054FB34
:102B10001F4A1368104633B9636014602846BDE845
:102B2000384000F04ABBA3420CD921686218934296
:102B300004BF1A685B68636004BF521822600460B7
:102B4000ECE713465A680AB1A242FAD91968581834
:102B5000A0420BD120680144581882421960DDD18F
:102B6000106852685A6001441960D7E702D90C23F3
:102B70002B60D3E7206821188A4204BF116852688D
:102B8000626004BF091821605C60C7E738BD00BF00
:102B9000D803002070B5CD1C25F0030508350C2D99
:102BA00038BF0C25002D064601DBA94203D90C23B2
:102BB0003360002070BD00F0FFFA214A14682146FE
:102BC00091B9204C23681BB9304600F079F9206098
:102BD0002946304600F074F9431C24D10C2333609D
:102BE000304600F0EAFAE4E70B685B1B18D40B2BC5
:102BF0000FD90B60CD50CC18304600F0DEFA04F14E
:102C00000B00231D20F00700C31AD3D05A42E25014
:102C1000D0E78C424B6816BF636013600C46EBE74D
:102C20000C464968CCE7C41C24F00304A04205D03C
:102C3000211A304600F044F90130CFD02560DBE79F
:102C4000D8030020DC0300209368013B002B10B464
:102C5000936007DA9469A34201DB0A2902D110BC10
:102C600000F082B91368581C10601970084610BC37
:102C70007047F8B506460F461446D518AC4201D148
:102C8000002007E03A4614F8011B3046FFF7DCFF4E
:102C9000431CF3D1F8BD00002DE9F04F9DB00C4668
:102CA00017460393064618B183690BB9FFF7DAFAA2
:102CB0007B4B9C4257D17468A38918075DD5236963
:102CC000002B5AD00023099320238DF8293030237C
:102CD0008DF82A304FF0010BB846454615F8013BF8
:102CE0000BB1252B54D1B8EB070A0BD053463A460B
:102CF00021463046FFF7BDFF013000F0C280099B3E
:102D00005344099398F80030002B00F0BA80002358
:102D10004FF0FF32CDE90523049307938DF853302C
:102D20001A93A846052218F8011B5E48FFF7A0FB7E
:102D3000049B78BBD90644BF20228DF853201A0784
:102D400044BF2B228DF853202A782A2A2AD0079AAA
:102D5000A84600200A25414611F8013B303B092BCB
:102D600069D960B324E0504B9C4201D1B468A3E719
:102D70004E4B9C4208BFF4689EE72146304600F067
:102D800057F900289ED04FF0FF301DB0BDE8F08FFE
:102D9000A846A2E7434A801A0BFA00F018430490B1
:102DA0004546BEE7039A111D12680391002A01DB14
:102DB000079204E0524243F002030792049398F80A
:102DC00000302E2B0ED198F801302A2B38D1039BDE
:102DD0001A1D1B680392002BB8BF4FF0FF3308F198
:102DE00002080593324D98F8001003222846FFF799
:102DF0003FFB40B14023401B03FA00F0049B034318
:102E000008F10108049398F800102A488DF828105A
:102E1000062208F10107FFF72BFB002837D0264BCD
:102E20001BBB039B073323F0070308330393099B62
:102E30004B44099350E705FB0232012088468AE79C
:102E4000002308F10108059319460A25404610F8A9
:102E5000012B303A092A03D9002BC3D00591C1E7D1
:102E600005FB012101238046F0E703AB00932246D6
:102E7000124B04A93046FDF731FEB0F1FF3F814609
:102E8000D5D1A3895B063FF57EAF09987DE703ABFB
:102E900000932246094B04A93046FEF7CBF8ECE735
:102EA00008BC000044BD000028BC0000E8BB0000D6
:102EB0004ABD00004EBD0000DD0A0000732C00007A
:102EC00038B5064C0023054608462360FDF710FB85
:102ED000431C02D1236803B12B6038BD2C090020AC
:102EE00010B50C46B1F90E1000F068F90028ABBF20
:102EF000636DA3891B1823F48053ACBF6365A38162
:102F000010BD2DE9F0411F468B89DB0505460C46B7
:102F1000164605D502230022B1F90E1000F028F95B
:102F2000A389B4F90E1023F48053A38132463B46A3
:102F30002846BDE8F04100F069B810B50C46B1F97B
:102F40000E1000F015F9431CA38915BF606523F42A
:102F5000805343F48053A38118BFA38110BDB1F9FE
:102F60000E1000F0D3B80000F8B50E461446054622
:102F700018B183690BB9FFF775F9214B9C422AD12F
:102F80006C68A369A360A3891A072ED5236963B36C
:102F900023692068C01A6369F6B28342374604DCAD
:102FA00021462846FFF7F4F828BBA368013BA3603D
:102FB00023685A1C22601E7063690130834204D06A
:102FC000A389DB0719D50A2E17D121462846FFF71A
:102FD000DFF890B10FE00B4B9C4201D1AC68D0E719
:102FE000094B9C4208BFEC68CBE72146284600F01D
:102FF0001FF80028CCD04FF0FF373846F8BD00BF8F
:1030000008BC000028BC0000E8BB000038B5074C35
:10301000054608461146002222601A46FDF782FA4C
:10302000431C02D1236803B12B6038BD2C0900205A
:10303000324B70B51D6806460C4625B1AB6913B915
:103040002846FFF70FF92E4B9C420FD16C68B4F95C
:103050000C309AB215072CD4D00611D40922326054
:1030600043F04003A3814FF0FF303EE0254B9C42EC
:1030700001D1AC68EBE7244B9C4208BFEC68E6E763
:10308000510712D5616B41B104F14403994202D05A
:103090003046FFF731FD00236363A38923F0240347
:1030A000A3810023636023692360A38943F008039D
:1030B000A38123694BB9A38903F42073B3F5007F7F
:1030C00003D021463046FFF789F9A28912F00103A7
:1030D0000CD00023A36063695B42A361236953B9E9
:1030E000B4F90C3013F08000BAD170BD920758BF0C
:1030F0006369A360F2E70020F7E700BF000000204B
:1031000008BC000028BC0000E8BB000038B5064C35
:103110000023054608462360FDF79EF9431C02D1B3
:10312000236803B12B6038BD2C09002038B5074C4B
:1031300000230546084611462360FDF796F9431C17
:1031400002D1236803B12B6038BD00BF2C090020D9
:1031500038B5064C0023054608462360FDF790F974
:10316000431C02D1236803B12B6038BD2C09002019
:1031700038B5074C054608461146002222601A461B
:10318000FDF784F9431C02D1236803B12B6038BDDD
:103190002C09002082B001B901A942B14BB11378CA
:1031A0000B601278101C18BF012002B07047104647
:1031B000FBE76FF00100F8E77047704738B5074C40
:1031C000054608461146002222601A46FDF766F9B8
:1031D000431C02D1236803B12B6038BD2C090020A9
:1031E00049B1FF2A85BF8A2303600A704FF0FF3080
:1031F00098BF0120704708467047000081F00041E9
:1032000002E000BF83F0004330B54FEA41044FEACB
:10321000430594EA050F08BF90EA020F1FBF54EA66
:10322000000C55EA020C7FEA645C7FEA655C00F002
:10323000E2804FEA5454D4EB5555B8BF6D420CDDD3
:103240002C4480EA020281EA030382EA000083EA56
:10325000010180EA020281EA0303362D88BF30BDF6
:1032600011F0004F4FEA01314FF4801C4CEA11314C
:1032700002D0404261EB410113F0004F4FEA0333AB
:103280004CEA133302D0524263EB430394EA050F36
:1032900000F0A780A4F10104D5F1200E0DDB02FAA5
:1032A0000EFC22FA05F2801841F1000103FA0EF239
:1032B000801843FA05F359410EE0A5F120050EF1FF
:1032C000200E012A03FA0EFC28BF4CF0020C43FA30
:1032D00005F3C01851EBE37101F0004507D54FF03D
:1032E000000EDCF1000C7EEB00006EEB0101B1F58D
:1032F000801F1BD3B1F5001F0CD349085FEA3000D3
:103300004FEA3C0C04F101044FEA445212F5800FDD
:1033100080F09A80BCF1004F08BF5FEA500C50F17A
:10332000000041EB045141EA050130BD5FEA4C0C5D
:10333000404141EB010111F4801FA4F10104E9D1E6
:1033400091F0000F04BF01460020B1FA81F308BFDD
:103350002033A3F10B03B3F120020CDA0C3208DDA9
:1033600002F1140CC2F10C0201FA0CF021FA02F184
:103370000CE002F11402D8BFC2F1200C01FA02F1F4
:1033800020FA0CFCDCBF41EA0C019040E41AA2BF19
:1033900001EB0451294330BD6FEA04041F3C1CDAE1
:1033A0000C340EDC04F11404C4F1200220FA04F001
:1033B00001FA02F340EA030021FA04F345EA0301AB
:1033C00030BDC4F10C04C4F1200220FA02F001FA6D
:1033D00004F340EA0300294630BD21FA04F02946EF
:1033E00030BD94F0000F83F4801306BF81F4801188
:1033F0000134013D4EE77FEA645C18BF7FEA655CFB
:1034000029D094EA050F08BF90EA020F05D054EACC
:10341000000C04BF1946104630BD91EA030F1EBFD1
:103420000021002030BD5FEA545C05D140004941D5
:1034300028BF41F0004130BD14F580043CBF01F5C8
:10344000801130BD01F0004545F0FE4141F47001AE
:103450004FF0000030BD7FEA645C1ABF1946104689
:103460007FEA655C1CBF0B46024650EA013406BF8A
:1034700052EA033591EA030F41F4002130BD00BF49
:1034800090F0000F04BF0021704730B54FF4806406
:1034900004F132044FF000054FF0000150E700BF87
:1034A00090F0000F04BF0021704730B54FF48064E6
:1034B00004F1320410F0004548BF40424FF00001D3
:1034C0003EE700BF42004FEAE2014FEA31014FEA16
:1034D00002701FBF12F07F4393F07F4F81F0605165
:1034E000704732F07F4208BF704793F07F4F04BFB0
:1034F00041F40021704730B54FF4607401F000458D
:1035000021F000411CE700BF50EA010208BF7047EC
:1035100030B54FF000050AE050EA010208BF7047DD
:1035200030B511F0004502D5404261EB41014FF446
:10353000806404F132045FEA915C3FF4D8AE4FF04E
:1035400003025FEADC0C18BF03325FEADC0C18BF31
:10355000033202EBDC02C2F1200300FA03FC20FA82
:1035600002F001FA03FE40EA0E0021FA02F11444CF
:10357000BDE600BF70B54FF0FF0C4CF4E06C1CEAE8
:1035800011541DBF1CEA135594EA0C0F95EA0C0F59
:1035900000F0DEF82C4481EA030621EA4C5123EACC
:1035A0004C5350EA013518BF52EA033541F48011FB
:1035B00043F4801338D0A0FB02CE4FF00005E1FBAE
:1035C00002E506F00042E0FB03E54FF00006E1FBF8
:1035D00003569CF0000F18BF4EF0010EA4F1FF043B
:1035E000B6F5007F64F5407404D25FEA4E0E6D417B
:1035F00046EB060642EAC62141EA55514FEAC5208C
:1036000040EA5E504FEACE2EB4F1FD0C88BFBCF507
:10361000E06F1ED8BEF1004F08BF5FEA500E50F1B8
:10362000000041EB045170BD06F0004646EA01017E
:1036300040EA020081EA0301B4EB5C04C2BFD4EBB0
:103640000C0541EA045170BD41F480114FF0000EA9
:10365000013C00F3AB8014F1360FDEBF002001F017
:10366000004170BDC4F10004203C35DA0C341BDC91
:1036700004F11404C4F1200500FA05F320FA04F063
:1036800001FA05F240EA020001F0004221F0004197
:1036900010EBD37021FA04F642EB06015EEA430E0A
:1036A00008BF20EAD37070BDC4F10C04C4F120053A
:1036B00000FA04F320FA05F001FA04F240EA0200ED
:1036C00001F0004110EBD37041F100015EEA430EBE
:1036D00008BF20EAD37070BDC4F1200500FA05F2DE
:1036E0004EEA020E20FA04F301FA05F243EA02035D
:1036F00021FA04F001F0004121FA04F220EA02006C
:1037000000EBD3705EEA430E08BF20EAD37070BDB1
:1037100094F0000F0FD101F00046400041EB010191
:1037200011F4801F08BF013CF7D041EA060195F073
:10373000000F18BF704703F00046520043EB03032D
:1037400013F4801F08BF013DF7D043EA060370471A
:1037500094EA0C0F0CEA135518BF95EA0C0F0CD025
:1037600050EA410618BF52EA4306D1D181EA03016B
:1037700001F000414FF0000070BD50EA410606BF65
:103780001046194652EA430619D094EA0C0F02D1AA
:1037900050EA013613D195EA0C0F05D152EA0336EF
:1037A0001CBF104619460AD181EA030101F000410D
:1037B00041F0FE4141F470014FF0000070BD41F056
:1037C000FE4141F4780170BD70B54FF0FF0C4CF430
:1037D000E06C1CEA11541DBF1CEA135594EA0C0F4F
:1037E00095EA0C0F00F0A7F8A4EB050481EA030E9C
:1037F00052EA03354FEA013100F088804FEA033383
:103800004FF0805545EA131343EA12634FEA022250
:1038100045EA111545EA10654FEA00260EF0004111
:103820009D4208BF964244F1FD0404F5407402D263
:103830005B084FEA3202B61A65EB03055B084FEAF4
:1038400032024FF480104FF4002CB6EB020E75EBF1
:10385000030E22BFB61A754640EA0C005B084FEA19
:103860003202B6EB020E75EB030E22BFB61A754696
:1038700040EA5C005B084FEA3202B6EB020E75EBE1
:10388000030E22BFB61A754640EA9C005B084FEA59
:103890003202B6EB020E75EB030E22BFB61A754666
:1038A00040EADC0055EA060E18D04FEA051545EA55
:1038B00016754FEA06164FEAC30343EA52734FEAFE
:1038C000C2025FEA1C1CC0D111F4801F0BD141EA77
:1038D00000014FF000004FF0004CB6E711F4801FDC
:1038E00004BF01430020B4F1FD0C88BFBCF5E06FBC
:1038F0003FF6AFAEB5EB030C04BFB6EB020C5FEACC
:10390000500C50F1000041EB045170BD0EF0004E20
:103910004EEA113114EB5C04C2BFD4EB0C0541EA52
:10392000045170BD41F480114FF0000E013C90E64F
:1039300045EA060E8DE60CEA135594EA0C0F08BF13
:1039400095EA0C0F3FF43BAF94EA0C0F0AD150EA12
:1039500001347FF434AF95EA0C0F7FF425AF1046A5
:1039600019462CE795EA0C0F06D152EA03353FF4CD
:10397000FDAE1046194622E750EA410618BF52EA4A
:1039800043067FF4C5AE50EA41047FF40DAF52EA1E
:1039900043057FF4EBAE12E74FF0FF3C06E000BFBB
:1039A0004FF0010C02E000BF4FF0010C4DF804CDC8
:1039B0004FEA410C7FEA6C5C4FEA430C18BF7FEA88
:1039C0006C5C1BD001B050EA410C0CBF52EA430CB6
:1039D00091EA030F02BF90EA020F0020704710F136
:1039E000000F91EA030F58BF994208BF90422CBFC5
:1039F000D8176FEAE37040F0010070474FEA410CBE
:103A00007FEA6C5C02D150EA013C07D14FEA430CDB
:103A10007FEA6C5CD6D152EA033CD3D05DF8040B4C
:103A2000704700BF8446104662468C46194663467E
:103A300000E000BF01B5FFF7B7FF002848BF10F155
:103A4000000F01BD4DF808EDFFF7F4FF0CBF01209A
:103A500000205DF808FB00BF4DF808EDFFF7EAFF16
:103A600034BF012000205DF808FB00BF4DF808EDD1
:103A7000FFF7E0FF94BF012000205DF808FB00BFC6
:103A80004DF808EDFFF7CEFF94BF012000205DF850
:103A900008FB00BF4DF808EDFFF7C4FF34BF01205D
:103AA00000205DF808FB00BF4FEA410C7FEA6C5C28
:103AB00002D150EA013C0AD14FEA430C7FEA6C5C28
:103AC00002D152EA033C02D14FF0000070474FF0A0
:103AD000010070474FEA410212F5001215D211D5CC
:103AE0006FF47873B3EB625212D94FEAC12343F0FB
:103AF000004343EA505311F0004F23FA02F018BF7D
:103B0000404270474FF00000704750EA013005D145
:103B100011F0004008BF6FF0004070474FF0000008
:103B2000704700BF82B0034600918DF807309DF8C2
:103B30000730002B12D09DF80730012B0ED09DF8D6
:103B40000730022B0AD09DF80730032B06D09DF8D2
:103B50000730042B02D09DF80730052B0122009B73
:103B600002FA03F306499DF80720184613465B0046
:103B700013441B010B441833186000BF02B0704798
:103B800000A0004008B5002304220B21022007F00A
:103B900015FB00BF08BD08B50B210220FFF7C2FFCF
:103BA00000BF08BD00B585B001900091009B9968E9
:103BB000009B9B881A460198FEF7AAFC009BDB68D5
:103BC000002B12D0009B5A88009B9B88D31AADF81B
:103BD0000E30009B9B881A46019B9818009BDB685F
:103BE000BDF80E201946FEF793FC00BF05B05DF846
:103BF00004FB000082B00190044B02221A70044BB7
:103C000000221A6000BF02B0704700BFEC03002022
:103C1000E403002000B585B003468DF807300B4A59
:103C20009DF80730D3700A4B1B68052207491846D8
:103C300000F056FF0346039303990648FDF70CFB7B
:103C4000039B184605B05DF804FB00BF400300204D
:103C5000F0030020A4BE000000B595B003900BABAC
:103C60001A460321039800F06FFF12909DF82C3044
:103C7000072B7DD1BDF82E30802B7BD80AAA0023DC
:103C8000009304231299039800F069FF9DF82830EF
:103C90008DF847309DF8293003F003038DF8463046
:103CA0009DF8293003F020038DF845309DF847300A
:103CB000052B07D19DF84630022B03D1039800F065
:103CC00017FF0FE09DF84530002B0BD02E4B1B78D3
:103CD00083F00103DBB2002B04D09DF82B30184693
:103CE000FFF798FF01238DF81C300023069305ABE6
:103CF0001A461299039800F02BFF244B1B6810936F
:103D0000109BDB01224A13440F93BDF82E307E2B0B
:103D100006D9BDF82E3019461E48FDF79DFA0FE072
:103D20000BAB19460F98FFF73DFF109B032B03D1F8
:103D3000164B00221A6003E0109B0133134A1360F4
:103D4000012313930AE0139B0F9A13441B7819461F
:103D50001148FDF781FA139B01331393BDF82E3000
:103D60001A46139B9342EEDB0C48FDF775FA02E00E
:103D700000BF00E000BF1299039800F0EDFE00BF05
:103D800015B05DF804FB00BFE0030020F403002041
:103D9000F8030020B0BE0000C0BE0000C8BE000096
:103DA0002DE9104885B00390CDE90023DDE900340A
:103DB0002B494FF0FF3203EA010B04EA020CCDE974
:103DC00000BCDDE90034234345D0DDE900344FF089
:103DD00001014FF0000203EA010B04EA020C5BEA66
:103DE0000C0307D0039800F0D9FE034619461D487E
:103DF000FDF732FADDE900344FF008014FF0000220
:103E000003EA010B04EA020C5BEA0C0302D00398FC
:103E1000FFF722FFDDE900344FF02A514FF0110285
:103E200003EA010B04EA020C5BEA0C0302D00E4B1E
:103E300000221A60DDE900344FF000014FF4807277
:103E400003EA010B04EA020C5BEA0C0304D0064B04
:103E500000221A6000E000BF05B0BDE8108800BF76
:103E6000CFFFF3FFCCBE0000E403002000B583B019
:103E700001900C4B1B6801220321184600F008FB3F
:103E8000094B04221A70019B084A1360054B1B68FA
:103E9000019A91B20022184600F00EFB00BF03B059
:103EA0005DF804FBF0030020EC030020E803002091
:103EB00000B583B00190019B1846FFF7D7FF00BF04
:103EC00003B05DF804FB000070B588B0524B1B785E
:103ED000002B40F0988005AB0121184600F014FD3E
:103EE0004E4B596C4D4B1B6C1A464D48FDF7B4F9BF
:103EF0009DF818301C469DF819301D469DF81A3063
:103F00001E469DF81B3019469DF81C301846059B2F
:103F10009DF81D20002A01D0424A00E0424A039247
:103F200002930190009133462A4621463F48FDF70F
:103F300093F93F493F4800F091FA02463E4B1A6020
:103F40003D4B1B683D49184600F0DAFD3A4B1B68B3
:103F50004FF00111184600F077FD374B1B681846EB
:103F600000F088FE344B1B683549184600F04EFEC1
:103F7000314B196826A4D4E90034CDE900344FF060
:103F8000FF324FF0FF33084600F0FCFC2A4B1B6861
:103F90002C49184600F024FD274B1B68FF211846CA
:103FA00000F009FD042228492848FEF7B1FA04224E
:103FB00027492848FEF7ACFA1F4B1B68002223490B
:103FC000184600F06BFE1C4B1868234B1B88002220
:103FD000194600F05BFE184B1868204B1B88002226
:103FE000194600F04BFE144B1B680021184600F0E8
:103FF00083FD01221A4B1A700B20FFF737FF194877
:10400000FDF72AF900E000BF08B070BDAFF30080F3
:104010000B00A07F11010000EC030020B081E00F35
:10402000D8BE0000E8BE0000F8BE0000FCBE0000E4
:10403000F53B0000D4010020F003002060BE00002A
:1040400064BE000080BE0000F081E00FB4090020D3
:10405000F481E00FB8090020D0010020D201002037
:10406000E003002028BF000000B585B001900023C8
:1040700003930DE0039A019B9A4203D30948FDF78D
:10408000EBF809E0642000F0F7F8039B6433039336
:10409000054B1B68002BEDD1044B184605B05DF8AD
:1040A00004FB00BF40BF0000E403002031090020F2
:1040B00000B587B00390039BDBB21C4A0233DBB22E
:1040C000137006F0CFF91A4B01221A60194B032224
:1040D0001A70194B1868039B9BB201339AB2039B69
:1040E0009BB201339BB2114900F00EFD00230593F2
:1040F00012491348FDF7B0F80F4B1868114B1B68B5
:1041000099B200230093104B059A00F0C5F90346BD
:104110000493049B002B02D0054B00221A6006F08A
:10412000A4F9049B184607B05DF804FB3009002091
:10413000E4030020EC030020F003002060BF000037
:104140004CBF0000E803002088BE000000B587B027
:1041500001900091274B1B68002B47D02649274828
:10416000FDF77AF8234B00221A6036E02448FFF767
:104170007BFF0490049B002B33D0049BC5221A7054
:10418000204B1B785A1CD1B21E4A1170049A5370EE
:10419000049B023308221C491846FEF7B9F9322362
:1041A0000393009B0593059A039B9A4201D9039BB5
:1041B0000593049B0A33059A01991846FEF7A8F95E
:1041C000009A059BD31A0093019A059B134401930F
:1041D000059B0A331846FFF76BFF009B002BC5D1E8
:1041E00000E000BF034B01221A6000E000BF07B0EF
:1041F0005DF804FBB009002078BF000058BF000044
:10420000A0860100F8050020B409002008B5034984
:104210000348FDF721F800BF08BD00BFA0BF0000A4
:1042200088BF000008B503490348FDF715F800BF33
:1042300008BD00BFB4BF000088BF000008B50A4831
:1042400005F0D8FA0246094BA3FB02239B0C9AB255
:10425000074B1A80044805F0CDFA03461946054875
:10426000FCF7FAFF00BF08BD0002040083DE1B4319
:10427000BC09002090BF000084B00190019B9AB25D
:10428000094B1B8812FB03F3ADF80E30074B0022DD
:104290005A6200BF054B5A6ABDF80E309A42F9D3F4
:1042A00000BF04B0704700BFBC090020008401407B
:1042B00008B5002301220E21012006F07FFF002314
:1042C00004220F21012006F079FFFBF7F5FFFCF730
:1042D00059F800F003F800BF08BD000030B589B000
:1042E0005C4B01AC1D460FCD0FC495E8070084E878
:1042F000070000238DF804304FF4E13303930523C6
:104300008DF811300023ADF812304FF48053ADF822
:10431000143000238DF8103000238DF81630002360
:104320008DF8173000238DF8183001AB19464A4834
:1043300007F0C4F80023009300238DF80130002318
:104340008DF8023000238DF803306B461946424841
:1043500007F01CF9404B9B6F23F0F8533E4A43F0A3
:10436000806393673C4B5B6F3B4A23F008035367C2
:10437000394B9B6F23F4F813374A43F44033936768
:10438000354B5B6F344A23F004035367324BDB6FCA
:1043900023F01F03304A43F00203D3672E4B5B6FB9
:1043A0002D4A23F0100353672B4BDB6F23F4F85394
:1043B000294A43F48073D367274B5B6F264A23F067
:1043C00020035367244B9B6F23F01F03224A43F0C3
:1043D00008039367204B5B6F1F4A43F00103536749
:1043E0001D4B9B6F23F4F8531B4A43F420639367E0
:1043F000194B5B6F184A43F002035367164B5B6E11
:10440000154A23F004035366134B5B6E124A23F0E4
:1044100002035366104B5B6E0F4A23F0080353668A
:104420000D4B1B680C4A23F4004313600A4B1B68B6
:10443000094A23F480431360074B1B68064A23F4A0
:10444000005313600521044807F014F800BF09B0B9
:1044500030BD00BFC8BF00000000014070B50E466F
:10446000044678B1084D2B7863B9084B186000F00A
:104470004DF83146204600F039F8031C18BF0123DF
:104480002B7070BD0020FCE700060020FC0500201A
:104490000846114600F04EB810B500B10C3003F0DC
:1044A000E1FF044618B9034B01215B689847204699
:1044B00010BD00BF5003002010B500B10C3000F05B
:1044C0006BFA044620B9034B01215B680846984704
:1044D000204610BD500300207047431E012B03D916
:1044E000031F5842584170470120704738B50446B1
:1044F0000D46002100F05DFA2946204603F034FE07
:1045000000280CBF2046002038BD000010B504462E
:1045100003F056F844B1054AD4F88030002B08BFA8
:104520001346034A136010BD636FFFDED9440000D9
:104530004403002010B50C4603F0AEF81CB103F0A4
:104540000FF90128FBD1034B00215B680320BDE874
:10455000104018475003002000B10C3003F01CBA83
:104560000B8810B43BB143F2C822934228BF1346D4
:10457000642B38BF64230B804B883BB143F2C822C5
:10458000934228BF1346642B38BF64234B808B882B
:104590003BB143F2C822934228BF1346642B38BF75
:1045A00064238B80CB883BB143F2C822934228BF5F
:1045B0001346642B38BF64230A89CB8043F2C82496
:1045C0004B89A24228BF2246A34228BF23460A8124
:1045D0004B8100B10C305DF8044B03F059BE000074
:1045E0002DE9F04FDFF85891524E83B004468DF814
:1045F00007308B46174604F01BF9B9F8005004F059
:1046000035F9002868D1E36E326893425BD003F03D
:10461000A7F8012835D1DFF82CA1A26EDAF8003016
:10462000E06E002B5DD093425ED01D681168026879
:104630000DB18D4264D0204603F0D4FC0023054622
:1046400001270093D4F87C80B8F1000F64D00022D9
:1046500011460DF107032046C0476DB9D4E91A236E
:104660003360009BCAF8002003B987B32046C9F81D
:1046700000B003F085FA054687B9284603B0BDE8C7
:10468000F08F012003F008F803F06AF80128FBD14D
:10469000294B00215B6803209847BCE7B5FA85F0F9
:1046A0004009332100F06CFA9DF80710204603F012
:1046B000B7FC224BE16E1B68A4F10C00984728461A
:1046C00003B0BDE8F08F002BA1D05D459FD1002540
:1046D000284603B0BDE8F08F0023336004F0BEF835
:1046E00091E711680268A6E7316800299DD08142F0
:1046F0009BD1B5EB0B0318BF012300930025A1E765
:10470000316811B10968914201D0596893E70023DB
:1047100000931D46012795E7217994F8B1309DF863
:104720000720994228BF1946204603F0D8F9002DEA
:10473000A2D193E70C060020500300204403002080
:1047400004060020080600202DE9F04F804683B0C3
:104750000E4605F073FED8F86C3082461BB1B8F8EF
:104760000830B3424FD0D8F86870002F59D0BC68D9
:10477000002C56D0F968002953D0D8F87CB0BBF192
:10478000000F56D04FF00009CC464D46A8F10C035F
:1047900000E0BC6805EB450204EBC2040135E28988
:1047A000B24217D8228AB242184613D3B4F9121073
:1047B000B8F9E6C001938C450A4619DD98F8A810AF
:1047C00001F02AFD98F804208242814610D9F96848
:1047D000019BA4468D42DCD3BCF1000F07D15046AB
:1047E00005F037FE0124204603B0BDE8F08F644693
:1047F0000023194622464046D847A8F80860C8F862
:104800006C4088F8B190002331461A464046FFF7C5
:10481000E7FE0446504605F01CFE204603B0BDE806
:10482000F08F504605F015FE0324204603B0BDE886
:10483000F08FD94658465D46A8F10C0347F6FF7B3A
:104840000EE098F8A81001F0E7FC98F804208242E6
:104850008146D2D9F968019B20468D4215D2BC68A9
:1048600005EB450204EBC2040135E289B242F4D8FB
:10487000228AB242F1D3B4F9121001935945184675
:104880000A46DED14FF0FF09B7E70028A7D004465B
:10489000B3E70000F8B50D1C18BF01250E4607460A
:1048A0001F21284600F06CF90024304600F022FA5F
:1048B0001F21284687F8B440C7E91A6400F060F960
:1048C000F1684FF6FF721820E3B28B420BD3154606
:1048D0000A4A002313600A4A294638461360FFF744
:1048E00033FF2846F8BDB56800FB0353DD899542C8
:1048F00002D2002DECD02A460134E5E7080600205C
:104900000C0600200089704740F6021383800122C4
:1049100000238271437221B1C271044A02600372A2
:104920007047C17101600172704700BFD8802A29A9
:104930000A7838B505461046FFF7CFFD60B14C78D0
:104940002046FFF7CAFD38B12243530704D4284656
:10495000BDE8384003F03AB8012038BD10B5044630
:104960000878FFF7BAFD58B14A781046FFF7B5FD51
:1049700030B1042A04D02046BDE8104003F050B8FE
:10498000012010BD30B4DDE9024500B10C30CDE9A5
:10499000024530BC02F0C0BD38B504460D46FFF7F5
:1049A000D3FE28B929462046BDE8384002F008BFAA
:1049B00038BD03F063BF38B5044600200D4600F053
:1049C00097F94CB1D4F8883043B9294604F10C006A
:1049D000BDE8384003F0A2B8E36FFFDE022038BD27
:1049E00038B5044648880D4600F082F94CB1D4F839
:1049F000883043B9294604F10C00BDE8384003F083
:104A00003BB8E36FFFDE022038BD38B504460D46E3
:104A100005F014FD0023A5616361BDE8384005F091
:104A200018BD38B505460C4605F008FDA9696B6947
:104A30000C4023436B6105F00CFD00200CB90021F4
:104A400038BD4FF48071FBE708B500B10C3001F0C0
:104A50000111FFF7DAFF002008BD73B50E78054697
:104A60000C4656B9314603F0F9F83146284603F0B2
:104A700059F93146284603F05EF9237843BB227981
:104A80008DF8042033B323798DF8053001A9284629
:104A9000FFF764FF0646C0B92378EBB9A2798DF819
:104AA0000420DBB1A3798DF8053001A92846FFF772
:104AB0003FFF064648B923783BB16188284603F09A
:104AC000EBF80121284603F0C9F8304602B070BD6A
:104AD0000422D5E76379D7E70222E0E7E379E2E74A
:104AE000402A03D800B10C3003F0F0B80120704721
:104AF00000B10C3003F028B900B10C3003F012B94A
:104B000000B10C3003F036BA00B10C3003F0E6B956
:104B100000B10C3003F0FCB907B502AA4FF40073E2
:104B200022F8023D0749FFF7F3FFBDF80630B3F561
:104B3000007F05D1022808BF002003B05DF804FB08
:104B40000120FAE7100600200846114603F022B9BA
:104B500000B10C3003F0A2B9084603F0B3B908461F
:104B600011461A46BDF8003002F036BD024B1960FE
:104B7000024B1860FEE700BF480300204C030020F2
:104B800008B528B9034B1960034B1868FFF7EEFF0F
:104B900008BD00BF48030020FC05002000B10C3018
:104BA00002F00ABE2DE9F0438BB006460D461822EE
:104BB000002104A8FBF7FAFE4FF0FF33CDE90133E3
:104BC000039305B901AD002405F10608204605F15F
:104BD0000C09E7B298B93A4635F81410304603F09C
:104BE0006DFE60B93A4638F81410304603F07AFE8C
:104BF00028B93A4609EBC401304603F088FE013477
:104C0000032CE6D10BB0BDE8F083000070B50C4674
:104C100086B0064650B300F10C05207EE37E627E2E
:104C2000A17E0090284603F09BFE04F10C0207CA07
:104C300003AB83E8070019463046FFF791FC211DBE
:104C40002846FFF70AFF064648B90949284603F0F7
:104C5000E7FA064618B9284603F068FE06462168BA
:104C60002846FFF79FFF304606B070BD0546D4E7E3
:104C7000E4BF000000B10C3003F00CBE022A03D8E0
:104C800000B10C3003F01ABE01207047022A03D88D
:104C900000B10C3003F026BE01207047022A03D871
:104CA00000B10C3003F033BE012070470020704784
:104CB00000207047431C08D0044AD2F83C311B0C3A
:104CC0001B0480B20343C2F83C31704700400840E7
:104CD00010B504460846FFF7EDFFE36E33B15B699C
:104CE00023B14A1C08BF6FF001011960002010BDFC
:104CF00070470000044B5868431C14BFC0F3807019
:104D000001203121FFF73CBFB081E00F38B50D46DF
:104D1000044600F025FFAC4042F2107164094C4398
:104D20006423B0FBF3F0B4FBF0F038BD034B1A681A
:104D300002609B8883800020704700BF5E030020D4
:104D40000F4B0228D3F8883104D183F40010C0F34C
:104D500040507047012805D113F4400F0CBF0120CB
:104D60000020704748B9074A506A10F0010005D08A
:104D700083F48000C0F3805070470020704700BF6C
:104D800000400E40B081E00F0B4B5B88B3F5E16F44
:104D900095BFC8235A237822502298428CBF1723EC
:104DA00010230B70054B1B7823B1904294BF002059
:104DB00001207047184670475E0300205C03002006
:104DC00013B51B4B1B78032B04461ED00DF10701B6
:104DD000FFF7DAFF9DF807301E2C4FEA032343F458
:104DE00040434FF0010212D912490A6090B9124AA9
:104DF00001211160C8B1114A4DF60171116002F133
:104E0000007213600E4B08221A6002B010BD0D49EB
:104E10000A6040B10C4A4DF60171116002F1007256
:104E20001E2C1360E3D8094AE2E7094BEBE700BF09
:104E30005E03002008410846204108461C41084402
:104E4000944008460841084404410844204108446D
:104E5000944008440A4B0B4AD3F88831DB4303F4EF
:104E6000FE1343F40053B3FA83F3C3F1FF2303F5B6
:104E70007F03F233C3EB4313013B1370704700BF52
:104E800000400E4066030020012804D008D3022809
:104E900003D00020704707207047044B18787047F4
:104EA000024B18780430C0B2704700BF6603002080
:104EB00030B51F234FF0FF34B0FBF3F35D1CC3EBA1
:104EC0004313AC40C01AE443C0B2E4B201301460F2
:104ED000086030BD2DE9F3411646404A404C126847
:104EE000404F14403A78012A054688461AD144EAD0
:104EF000006488F80000002333607B88B3F5E16F1D
:104F00008CBF5A23C82324F47F549D4224F0080404
:104F10009ABF200A00F47F5043F6C870204302B0C5
:104F2000BDE8F081304A1278904228BF1546002B28
:104F300014BF042300232B440B70002D2FD12B4BC7
:104F400033606A46284601A9FFF7B2FF009A284B52
:104F500001981B7898F800C044EA823444F47F54E6
:104F600044F0080444EA0064FBB122493878224B3B
:104F7000B2FA82F2C2F11F02022818BF0B46511C7E
:104F800017D09B5CD8B2316821F07F433360BCF10D
:104F9000000F10D143F0306343F00403ACE74FF04F
:104FA0003063013D3360EDB2CBE7FF204FF0FF32BD
:104FB000E9E7FF20E7E7013203D0421ED2B2FD2A23
:104FC00006D921F07F4323F0040343F07F4393E7A6
:104FD00043F0040343EA00638EE700BFE00F0021C3
:104FE0003F00C0E05E030020660300200400000BC9
:104FF00014080020B883E00FB083E00F73B50446B7
:10500000C820FFF7DDFE214B214E1B78032B01D07A
:10501000FF2C03D1FF20307002B070BD012B1BD1DB
:10502000072C204628BF072001284FF0000301AAC3
:105030000DF1030138BF0120FFF74CFF154B019A1A
:10504000C3F85821144B18609DF803003070FFF727
:10505000B7FE9DF80300DFE783B9042C10D81D4686
:105060001846201A01AA0DF10301C0B2FFF732FF62
:105070004FF4800345B1094A1360DFE70023EEE7F0
:1050800001231D460420ECE7054AF5E75E030020F6
:105090005D03002000400840E00F00210841084661
:1050A0000841084408B500F0CDFF094B094A002823
:1050B00014BF18461046036823F47F125B0803F4FC
:1050C000FE1313430360044B4FF00072DA6108BD16
:1050D00000410840184108400040084008B500F071
:1050E000B1FF4FF4001330B1044A1360044B4FF08A
:1050F00000621A6008BD034AF7E700BF0041084498
:105100002040084418410844014B1868704700BF0C
:105110001808002070B505460E46C0B201F00F0118
:10512000FFF7F4FDC6F303110446C5F30720FFF7AC
:10513000EDFDC6F303210444C5F30740FFF7E6FD88
:10514000204470BD434B1B682DE9F047D0F8F85060
:10515000DFF82081404F414E03F4E073A3F5C072A5
:10516000002D08BF01258146504250413C4A11683C
:10517000A9423C4910D10C7884420DD199F8A8C0BD
:1051800098F80040A44507D199F805C03C78A4459B
:1051900002D1B088BDE8F087B3F5C07F1560087014
:1051A00053D099F8A830022B46D12F4B1B78002BF7
:1051B00014BFC82496240F212046FFF7A7FDB5FA97
:1051C00085F3B0FA80F29B1A002BC4BFC3F10F0A1B
:1051D000D840264BD8BF4FF00F0A85424FEA044013
:1051E000D86603F1806303F1680340F6FF7238BFAD
:1051F0000AF1FF3A1A6003F100734FEA0A211960BD
:10520000FFF788FFB08000F0ABFC04FA0AF44FF41B
:10521000FA735C4341F66A03B0FBF3F0144BB4FB42
:10522000F0F40A2044431C6099F8A83088F8003054
:1052300099F805303B70ACE7012B08D00A4B1B787E
:10524000002B14BFF024B424B5E70024B3E73224C4
:10525000B1E700BF18600840640300205E0300202F
:1052600058030020100800201408002000600840A7
:105270001808002065030020FF2907D00B0103F464
:10528000F87301F007011943064B9960FF2A07D014
:10529000130103F4F87302F007021A43014B5A603A
:1052A000704700BFE00F0021F8B5144B1C6804B133
:1052B0000C34204600F0B6FE114E124F3278C5B2C3
:1052C000AA4201D13B78A3B1092D13D80E4B012D71
:1052D000595D05D10D4B1B78012B01D141F04001E7
:1052E00001F00F0220460909FFF7C6FF00233570C1
:1052F0003B70F8BD0025FA21F2E700BFFC05002055
:105300001208002013080020ECBF00005E030020FC
:10531000F8B5064600F01CFC3078344C344FFFF7EB
:105320000FFD28B903232370FF233B700120F8BD34
:10533000304D0023C5E90033AB60327823789B1AE7
:105340002D4A18BF0123137033682360B388A380EC
:10535000C820FFF735FDFF232A683B70274B134019
:105360002278022A1BD1264A4FF4EE41116002F145
:1053700000724FF48A41116043F08043012143F0F1
:10538000200342F8041C1B4A13601E4B03221A60C0
:10539000FFF78AFF1C4B01221A700020C7E7012A81
:1053A0001A4E1B4D1B4C1C481C494FF007020ED1D6
:1053B000326003262E60226006220260184A0A60CC
:1053C000184A43F003034FF440411160DBE73260B9
:1053D00004262E6022600522026043F08043C02232
:1053E0000A6043F01403104A8121EEE75E030020B7
:1053F0005D030020E00F0021130800202800C0A05A
:105400002441084458410844110800200041084440
:10541000004108460C4108440C4108460841084434
:10542000C100400004410844084108462DE9F04B02
:105430002B4F2C4B3B6000F093FB4FF4FA634FF47F
:105440007A76DFF8B880B0FBF6F56B434FEA032BB2
:105450004FEA136C1BEB08004FF000094FF00003FC
:10546000214A4CEB090106F0D7F9A0F580730446F8
:10547000BB6218B92B21FFF783FB012406FB04F262
:1054800000275608B8194FEA05283B4648F10001A5
:1054900006F0C2F9154B1960154B27060646186031
:1054A000240A25B928462B21FFF76AFB01254FF472
:1054B0007A73A7FB037803FB04886C0838194FF054
:1054C00000032A4648F1000106F0A6F9094B1960CD
:1054D000094B1860024B013E1E63BDE8F08B00BF14
:1054E000005008400011010040420F002808002031
:1054F00024080020200800201C08002020A107000C
:10550000044B4FF08052C3F880211A60024B0122F5
:105510005A60704700E100E000500840054B02016E
:10552000134401221A604FF4807303FA00F0024B17
:105530005866704774500844005008402DE9F04107
:10554000144607460D461E4604F078FF022C64D030
:105550003D493E4AD1F800E092693D4B8446002126
:105560004FF00040E2FB0E011B68D5F800E0012C73
:1055700008BF0EF1010E03FB021308BF9E44A3EB0C
:105580000E0308BFC5F800E0B3F1804F4AD331499C
:10559000314BD1F800802D4D1B682D6B4FF0004032
:1055A0000021EEFB080103FB0E13AB4288BFE8436A
:1055B000264D07F1070105EB071E05EB011188BF1A
:1055C0001B181120CEF880304860A969E86DA3EB64
:1055D000020E8A1A96451FD84FF48073BB401842BA
:1055E0001AD12CB3F1072B6608D51C4B1C4941F688
:1055F0001F7240F201101A6008601A60B20706D5E7
:10560000164B1749174A18481A6008601A60730742
:1056100042BF164B01229A60604604F01AFF012037
:10562000BDE8F081604604F014FF0020BDE8F08181
:105630000F4A3F013A440121604611606B6604F055
:1056400008FF2046ECE700BF1C080020005008407F
:105650002008002024080020280800206C5008445E
:105660006C50084600001F1F000001010040084068
:1056700074500844024B0001185800F001007047B4
:105680007450084001F460010001024B41F0030135
:10569000195070477450084010B5164CE36BF3B9BD
:1056A000202000F097F9144B10221A60134A536817
:1056B00003F07063B3F1807FF9D901F0A7F838B136
:1056C0002D2000F087F900220020042102F0E4FFE1
:1056D000084B0B4ADA6641F201421A6710BD01F02D
:1056E00095F80028F4D0074A4FF000736366136002
:1056F000EEE700BF00500840004008460040084068
:10570000011B01186850084608B5212000F062F915
:10571000024B4FF480325A6008BD00BF0050084071
:1057200008B5222000F056F9024B4FF480225A604F
:1057300008BD00BF00500840064B10B51968064B65
:105740001C684FF000420023E0FB042301FB003003
:1057500010BD00BF200800201C080020014B9869E4
:10576000FFF7EABF00500840FFF7E6BF094B1B6890
:1057700030B54FF000440025E0FB0345064B1B68A5
:1057800003FB0050054B1B6B984284BFDB43C018E2
:1057900030BD00BF24080020280800200050084029
:1057A000F8B5184C0546206820F4700040F4A000BD
:1057B00020609DF81C00002B08BF00211E469DF8AC
:1057C0001830000240EA036040EA021242EA064250
:1057D0001143E164E76AFF2F4FF018018CBF0020EE
:1057E0000120FFF7CDF9A7635EB1288A412838BFB1
:1057F0004120FFF7BBFF013087423ABF0023E3633C
:10580000E063F8BD0050084038B50446FFF7A6FF36
:105810000546FFF7A3FF401BA042FAD338BD0000A6
:1058200038B5044604F024FE14F4C00F054649D0F0
:10583000274A91688909C1F30903890525494968FF
:10584000906948BF6FEA8353C2B248BF6FEA93536F
:10585000000648BF62F0FF021F4812F1460FC06DFC
:1058600030DB13F5007F2DD0B3EB820F2ADC01F083
:105870007063B3F1806F02D011F0506F22D1C0027B
:1058800020D4FFF74DFF144BDA6DD1021AD41A6FF2
:1058900012B1104A01219160104ADA664FF4E00219
:1058A0005A66A20207D55A6D12F0706F1EBF5A6D6C
:1058B00002F17F425A6524F4C0042C2044F4801481
:1058C00000F088F8284604F0DEFD204638BD00BF11
:1058D00000700840004008400050084000000101EE
:1058E00038B5344B344C082205461A600121334840
:1058F00003F018FF324B1D702378013B012B0CD8AD
:10590000237CE07B01229A400C21302313FB0013FF
:1059100003F1884303F520431A602A4B00225A679B
:10592000002D40D06368002B33D000F019F9626875
:1059300000EB5203B3FBF2F3013B1B0243F0F8030D
:105940002278022A27D0032A29D0012A2ED143F017
:10595000020307221C494FF6FF70086001F1007135
:105960000B60184B5A6753070CD5237CE07B012250
:105970009A400C21302313FB001303F18C4303F5F1
:1059800020431A604FF0804395B1104A1360002005
:1059900038BDF823D4E743F001030522DAE743F0EA
:1059A00005030122D6E72A46F823D3E70022D1E7F0
:1059B000074AEBE7C8400E463008002000250A00E1
:1059C0002C080020000008407C0008449440084651
:1059D00094400844044BD3F89430002BBCBF034BD5
:1059E000C3F88000704700BF004008400000084036
:1059F00008B5064B06491A684FF004509200FCF7B0
:105A000087FDBDE8084000F0C1BB00BFB4CF000077
:105A10003CC00000C0F30062034B33F8123080B288
:105A200040EA0340704700BFFEBF000007B501A871
:105A300005F064FC1A4B1B4AC3F8442148F2E67295
:105A4000C3F838214FF40862C3F83421164AC3F86A
:105A5000A0209DF80530012B144B05D19DF80420A2
:105A6000012A9CBF28221A654AF63F429A60104BD1
:105A70004FF0C0729A62A3F540530022C3F8FC2095
:105A80000C4AC3F89C2003F18063A3F6DC737F22E9
:105A90001A6003F1007323221A6003B05DF804FB5F
:105AA00000400840C0E653517A27000F00300840FC
:105AB00000700840806D630308B50D4B40F2FD1285
:105AC000C3F8C820FFF7B2FF0A4B03221A600A4B43
:105AD0004FF4C012C3F8942003F1C0639433012241
